{
  "_format": "hh-sol-artifact-1",
  "contractName": "NFTMarketplace",
  "sourceName": "contracts/NFTMarketplace.sol",
  "abi": [
    {
      "inputs": [],
      "stateMutability": "nonpayable",
      "type": "constructor"
    },
    {
      "anonymous": false,
      "inputs": [
        {
          "indexed": true,
          "internalType": "address",
          "name": "owner",
          "type": "address"
        },
        {
          "indexed": true,
          "internalType": "address",
          "name": "approved",
          "type": "address"
        },
        {
          "indexed": true,
          "internalType": "uint256",
          "name": "tokenId",
          "type": "uint256"
        }
      ],
      "name": "Approval",
      "type": "event"
    },
    {
      "anonymous": false,
      "inputs": [
        {
          "indexed": true,
          "internalType": "address",
          "name": "owner",
          "type": "address"
        },
        {
          "indexed": true,
          "internalType": "address",
          "name": "operator",
          "type": "address"
        },
        {
          "indexed": false,
          "internalType": "bool",
          "name": "approved",
          "type": "bool"
        }
      ],
      "name": "ApprovalForAll",
      "type": "event"
    },
    {
      "anonymous": false,
      "inputs": [
        {
          "indexed": false,
          "internalType": "uint256",
          "name": "_fromTokenId",
          "type": "uint256"
        },
        {
          "indexed": false,
          "internalType": "uint256",
          "name": "_toTokenId",
          "type": "uint256"
        }
      ],
      "name": "BatchMetadataUpdate",
      "type": "event"
    },
    {
      "anonymous": false,
      "inputs": [
        {
          "indexed": false,
          "internalType": "uint256",
          "name": "_tokenId",
          "type": "uint256"
        }
      ],
      "name": "MetadataUpdate",
      "type": "event"
    },
    {
      "anonymous": false,
      "inputs": [
        {
          "indexed": true,
          "internalType": "uint256",
          "name": "tokenId",
          "type": "uint256"
        },
        {
          "indexed": false,
          "internalType": "address",
          "name": "owner",
          "type": "address"
        },
        {
          "indexed": false,
          "internalType": "address",
          "name": "seller",
          "type": "address"
        },
        {
          "indexed": false,
          "internalType": "uint256",
          "name": "price",
          "type": "uint256"
        },
        {
          "indexed": false,
          "internalType": "bool",
          "name": "currentlyListed",
          "type": "bool"
        }
      ],
      "name": "TokenListedSuccess",
      "type": "event"
    },
    {
      "anonymous": false,
      "inputs": [
        {
          "indexed": true,
          "internalType": "address",
          "name": "from",
          "type": "address"
        },
        {
          "indexed": true,
          "internalType": "address",
          "name": "to",
          "type": "address"
        },
        {
          "indexed": true,
          "internalType": "uint256",
          "name": "tokenId",
          "type": "uint256"
        }
      ],
      "name": "Transfer",
      "type": "event"
    },
    {
      "inputs": [
        {
          "internalType": "address",
          "name": "to",
          "type": "address"
        },
        {
          "internalType": "uint256",
          "name": "tokenId",
          "type": "uint256"
        }
      ],
      "name": "approve",
      "outputs": [],
      "stateMutability": "nonpayable",
      "type": "function"
    },
    {
      "inputs": [
        {
          "internalType": "address",
          "name": "owner",
          "type": "address"
        }
      ],
      "name": "balanceOf",
      "outputs": [
        {
          "internalType": "uint256",
          "name": "",
          "type": "uint256"
        }
      ],
      "stateMutability": "view",
      "type": "function"
    },
    {
      "inputs": [
        {
          "internalType": "string",
          "name": "tokenURI",
          "type": "string"
        },
        {
          "internalType": "uint256",
          "name": "price",
          "type": "uint256"
        }
      ],
      "name": "createToken",
      "outputs": [
        {
          "internalType": "uint256",
          "name": "",
          "type": "uint256"
        }
      ],
      "stateMutability": "payable",
      "type": "function"
    },
    {
      "inputs": [
        {
          "internalType": "uint256",
          "name": "tokenId",
          "type": "uint256"
        }
      ],
      "name": "executeSale",
      "outputs": [],
      "stateMutability": "payable",
      "type": "function"
    },
    {
      "inputs": [],
      "name": "getAllNFTs",
      "outputs": [
        {
          "components": [
            {
              "internalType": "uint256",
              "name": "tokenId",
              "type": "uint256"
            },
            {
              "internalType": "address payable",
              "name": "owner",
              "type": "address"
            },
            {
              "internalType": "address payable",
              "name": "seller",
              "type": "address"
            },
            {
              "internalType": "uint256",
              "name": "price",
              "type": "uint256"
            },
            {
              "internalType": "bool",
              "name": "currentlyListed",
              "type": "bool"
            }
          ],
          "internalType": "struct NFTMarketplace.ListedToken[]",
          "name": "",
          "type": "tuple[]"
        }
      ],
      "stateMutability": "view",
      "type": "function"
    },
    {
      "inputs": [
        {
          "internalType": "uint256",
          "name": "tokenId",
          "type": "uint256"
        }
      ],
      "name": "getApproved",
      "outputs": [
        {
          "internalType": "address",
          "name": "",
          "type": "address"
        }
      ],
      "stateMutability": "view",
      "type": "function"
    },
    {
      "inputs": [],
      "name": "getCurrentToken",
      "outputs": [
        {
          "internalType": "uint256",
          "name": "",
          "type": "uint256"
        }
      ],
      "stateMutability": "view",
      "type": "function"
    },
    {
      "inputs": [],
      "name": "getLatestIdToListedToken",
      "outputs": [
        {
          "components": [
            {
              "internalType": "uint256",
              "name": "tokenId",
              "type": "uint256"
            },
            {
              "internalType": "address payable",
              "name": "owner",
              "type": "address"
            },
            {
              "internalType": "address payable",
              "name": "seller",
              "type": "address"
            },
            {
              "internalType": "uint256",
              "name": "price",
              "type": "uint256"
            },
            {
              "internalType": "bool",
              "name": "currentlyListed",
              "type": "bool"
            }
          ],
          "internalType": "struct NFTMarketplace.ListedToken",
          "name": "",
          "type": "tuple"
        }
      ],
      "stateMutability": "view",
      "type": "function"
    },
    {
      "inputs": [],
      "name": "getListPrice",
      "outputs": [
        {
          "internalType": "uint256",
          "name": "",
          "type": "uint256"
        }
      ],
      "stateMutability": "view",
      "type": "function"
    },
    {
      "inputs": [
        {
          "internalType": "uint256",
          "name": "tokenId",
          "type": "uint256"
        }
      ],
      "name": "getListedTokenForId",
      "outputs": [
        {
          "components": [
            {
              "internalType": "uint256",
              "name": "tokenId",
              "type": "uint256"
            },
            {
              "internalType": "address payable",
              "name": "owner",
              "type": "address"
            },
            {
              "internalType": "address payable",
              "name": "seller",
              "type": "address"
            },
            {
              "internalType": "uint256",
              "name": "price",
              "type": "uint256"
            },
            {
              "internalType": "bool",
              "name": "currentlyListed",
              "type": "bool"
            }
          ],
          "internalType": "struct NFTMarketplace.ListedToken",
          "name": "",
          "type": "tuple"
        }
      ],
      "stateMutability": "view",
      "type": "function"
    },
    {
      "inputs": [],
      "name": "getMyNFTs",
      "outputs": [
        {
          "components": [
            {
              "internalType": "uint256",
              "name": "tokenId",
              "type": "uint256"
            },
            {
              "internalType": "address payable",
              "name": "owner",
              "type": "address"
            },
            {
              "internalType": "address payable",
              "name": "seller",
              "type": "address"
            },
            {
              "internalType": "uint256",
              "name": "price",
              "type": "uint256"
            },
            {
              "internalType": "bool",
              "name": "currentlyListed",
              "type": "bool"
            }
          ],
          "internalType": "struct NFTMarketplace.ListedToken[]",
          "name": "",
          "type": "tuple[]"
        }
      ],
      "stateMutability": "view",
      "type": "function"
    },
    {
      "inputs": [
        {
          "internalType": "address",
          "name": "owner",
          "type": "address"
        },
        {
          "internalType": "address",
          "name": "operator",
          "type": "address"
        }
      ],
      "name": "isApprovedForAll",
      "outputs": [
        {
          "internalType": "bool",
          "name": "",
          "type": "bool"
        }
      ],
      "stateMutability": "view",
      "type": "function"
    },
    {
      "inputs": [],
      "name": "name",
      "outputs": [
        {
          "internalType": "string",
          "name": "",
          "type": "string"
        }
      ],
      "stateMutability": "view",
      "type": "function"
    },
    {
      "inputs": [
        {
          "internalType": "uint256",
          "name": "tokenId",
          "type": "uint256"
        }
      ],
      "name": "ownerOf",
      "outputs": [
        {
          "internalType": "address",
          "name": "",
          "type": "address"
        }
      ],
      "stateMutability": "view",
      "type": "function"
    },
    {
      "inputs": [
        {
          "internalType": "address",
          "name": "from",
          "type": "address"
        },
        {
          "internalType": "address",
          "name": "to",
          "type": "address"
        },
        {
          "internalType": "uint256",
          "name": "tokenId",
          "type": "uint256"
        }
      ],
      "name": "safeTransferFrom",
      "outputs": [],
      "stateMutability": "nonpayable",
      "type": "function"
    },
    {
      "inputs": [
        {
          "internalType": "address",
          "name": "from",
          "type": "address"
        },
        {
          "internalType": "address",
          "name": "to",
          "type": "address"
        },
        {
          "internalType": "uint256",
          "name": "tokenId",
          "type": "uint256"
        },
        {
          "internalType": "bytes",
          "name": "data",
          "type": "bytes"
        }
      ],
      "name": "safeTransferFrom",
      "outputs": [],
      "stateMutability": "nonpayable",
      "type": "function"
    },
    {
      "inputs": [
        {
          "internalType": "address",
          "name": "operator",
          "type": "address"
        },
        {
          "internalType": "bool",
          "name": "approved",
          "type": "bool"
        }
      ],
      "name": "setApprovalForAll",
      "outputs": [],
      "stateMutability": "nonpayable",
      "type": "function"
    },
    {
      "inputs": [
        {
          "internalType": "bytes4",
          "name": "interfaceId",
          "type": "bytes4"
        }
      ],
      "name": "supportsInterface",
      "outputs": [
        {
          "internalType": "bool",
          "name": "",
          "type": "bool"
        }
      ],
      "stateMutability": "view",
      "type": "function"
    },
    {
      "inputs": [],
      "name": "symbol",
      "outputs": [
        {
          "internalType": "string",
          "name": "",
          "type": "string"
        }
      ],
      "stateMutability": "view",
      "type": "function"
    },
    {
      "inputs": [
        {
          "internalType": "uint256",
          "name": "tokenId",
          "type": "uint256"
        }
      ],
      "name": "tokenURI",
      "outputs": [
        {
          "internalType": "string",
          "name": "",
          "type": "string"
        }
      ],
      "stateMutability": "view",
      "type": "function"
    },
    {
      "inputs": [
        {
          "internalType": "address",
          "name": "from",
          "type": "address"
        },
        {
          "internalType": "address",
          "name": "to",
          "type": "address"
        },
        {
          "internalType": "uint256",
          "name": "tokenId",
          "type": "uint256"
        }
      ],
      "name": "transferFrom",
      "outputs": [],
      "stateMutability": "nonpayable",
      "type": "function"
    },
    {
      "inputs": [
        {
          "internalType": "uint256",
          "name": "_listPrice",
          "type": "uint256"
        }
      ],
      "name": "updateListPrice",
      "outputs": [],
      "stateMutability": "payable",
      "type": "function"
    }
  ],
  "bytecode": "0x6080604052662386f26fc10000600a553480156200001c57600080fd5b506040518060400160405280600e81526020016d4e46544d61726b6574706c61636560901b815250604051806040016040528060048152602001634e46544d60e01b815250816000908162000072919062000141565b50600162000081828262000141565b5050600980546001600160a01b03191633179055506200020d565b634e487b7160e01b600052604160045260246000fd5b600181811c90821680620000c757607f821691505b602082108103620000e857634e487b7160e01b600052602260045260246000fd5b50919050565b601f8211156200013c57600081815260208120601f850160051c81016020861015620001175750805b601f850160051c820191505b81811015620001385782815560010162000123565b5050505b505050565b81516001600160401b038111156200015d576200015d6200009c565b62000175816200016e8454620000b2565b84620000ee565b602080601f831160018114620001ad5760008415620001945750858301515b600019600386901b1c1916600185901b17855562000138565b600085815260208120601f198616915b82811015620001de57888601518255948401946001909101908401620001bd565b5085821015620001fd5787850151600019600388901b60f8161c191681555b5050505050600190811b01905550565b612145806200021d6000396000f3fe6080604052600436106101355760003560e01c80638e264590116100ab578063c322579c1161006f578063c322579c14610354578063c87b56dd14610367578063d1a88ae514610387578063e0391b091461039c578063e985e9c5146103b1578063ef2d1746146103fa57600080fd5b80638e264590146102bf57806395d89b41146102ec5780639b1225c414610301578063a22cb46514610314578063b88d4fde1461033457600080fd5b806342842e0e116100fd57806342842e0e1461020b578063629cb2e41461022b5780636352211e1461024d57806368f1945f1461026d57806370a082311461028c57806372b3b620146102ac57600080fd5b806301ffc9a71461013a57806306fdde031461016f578063081812fc14610191578063095ea7b3146101c957806323b872dd146101eb575b600080fd5b34801561014657600080fd5b5061015a610155366004611a60565b61040f565b60405190151581526020015b60405180910390f35b34801561017b57600080fd5b5061018461043a565b6040516101669190611acd565b34801561019d57600080fd5b506101b16101ac366004611ae0565b6104cc565b6040516001600160a01b039091168152602001610166565b3480156101d557600080fd5b506101e96101e4366004611b15565b6104f3565b005b3480156101f757600080fd5b506101e9610206366004611b3f565b61060d565b34801561021757600080fd5b506101e9610226366004611b3f565b61063e565b34801561023757600080fd5b50610240610659565b6040516101669190611bbb565b34801561025957600080fd5b506101b1610268366004611ae0565b610882565b34801561027957600080fd5b50600a545b604051908152602001610166565b34801561029857600080fd5b5061027e6102a7366004611c09565b6108e2565b61027e6102ba366004611cb0565b610968565b3480156102cb57600080fd5b506102df6102da366004611ae0565b6109aa565b6040516101669190611d09565b3480156102f857600080fd5b50610184610a14565b6101e961030f366004611ae0565b610a23565b34801561032057600080fd5b506101e961032f366004611d17565b610b87565b34801561034057600080fd5b506101e961034f366004611d53565b610b96565b6101e9610362366004611ae0565b610bc8565b34801561037357600080fd5b50610184610382366004611ae0565b610c33565b34801561039357600080fd5b506102df610d43565b3480156103a857600080fd5b50610240610dba565b3480156103bd57600080fd5b5061015a6103cc366004611dcf565b6001600160a01b03918216600090815260056020908152604080832093909416825291909152205460ff1690565b34801561040657600080fd5b5061027e610ee5565b60006001600160e01b03198216632483248360e11b1480610434575061043482610ef5565b92915050565b60606000805461044990611e02565b80601f016020809104026020016040519081016040528092919081815260200182805461047590611e02565b80156104c25780601f10610497576101008083540402835291602001916104c2565b820191906000526020600020905b8154815290600101906020018083116104a557829003601f168201915b5050505050905090565b60006104d782610f45565b506000908152600460205260409020546001600160a01b031690565b60006104fe82610882565b9050806001600160a01b0316836001600160a01b0316036105705760405162461bcd60e51b815260206004820152602160248201527f4552433732313a20617070726f76616c20746f2063757272656e74206f776e656044820152603960f91b60648201526084015b60405180910390fd5b336001600160a01b038216148061058c575061058c81336103cc565b6105fe5760405162461bcd60e51b815260206004820152603d60248201527f4552433732313a20617070726f76652063616c6c6572206973206e6f7420746f60448201527f6b656e206f776e6572206f7220617070726f76656420666f7220616c6c0000006064820152608401610567565b6106088383610fa7565b505050565b6106173382611015565b6106335760405162461bcd60e51b815260040161056790611e3c565b610608838383611093565b61060883838360405180602001604052806000815250610b96565b6060600061066660075490565b905060008060005b838110156106fe5733600b6000610686846001611e9f565b81526020810191909152604001600020600101546001600160a01b031614806106d9575033600b60006106ba846001611e9f565b81526020810191909152604001600020600201546001600160a01b0316145b156106ec576106e9600184611e9f565b92505b806106f681611eb2565b91505061066e565b5060008267ffffffffffffffff81111561071a5761071a611c24565b60405190808252806020026020018201604052801561075357816020015b610740611a1c565b8152602001906001900390816107385790505b50905060005b848110156108795733600b6000610771846001611e9f565b81526020810191909152604001600020600101546001600160a01b031614806107c4575033600b60006107a5846001611e9f565b81526020810191909152604001600020600201546001600160a01b0316145b156108675760006107d6826001611e9f565b6000818152600b6020908152604091829020825160a0810184528154815260018201546001600160a01b039081169382019390935260028201549092169282019290925260038201546060820152600482015460ff16151560808201528551929350909185908790811061084c5761084c611ecb565b6020908102919091010152610862600186611e9f565b945050505b8061087181611eb2565b915050610759565b50949350505050565b6000818152600260205260408120546001600160a01b0316806104345760405162461bcd60e51b8152602060048201526018602482015277115490cdcc8c4e881a5b9d985b1a59081d1bdad95b88125160421b6044820152606401610567565b60006001600160a01b03821661094c5760405162461bcd60e51b815260206004820152602960248201527f4552433732313a2061646472657373207a65726f206973206e6f7420612076616044820152683634b21037bbb732b960b91b6064820152608401610567565b506001600160a01b031660009081526003602052604090205490565b6000610978600780546001019055565b600061098360075490565b905061098f33826111f7565b6109998185611211565b6109a381846112dc565b9392505050565b6109b2611a1c565b506000908152600b6020908152604091829020825160a0810184528154815260018201546001600160a01b03908116938201939093526002820154909216928201929092526003820154606082015260049091015460ff161515608082015290565b60606001805461044990611e02565b6000818152600b6020526040902060038101546002909101546001600160a01b0316348214610abc576040805162461bcd60e51b81526020600482015260248101919091527f506c65617365207375626d6974207468652061736b696e67207072696365206960448201527f6e206f7264657220746f20636f6d706c657465207468652070757263686173656064820152608401610567565b6000838152600b6020526040902060048101805460ff1916600117905560020180546001600160a01b03191633179055610afa600880546001019055565b610b05303385611093565b610b0f30846104f3565b600954600a546040516001600160a01b039092169181156108fc0291906000818181858888f19350505050158015610b4b573d6000803e3d6000fd5b506040516001600160a01b038216903480156108fc02916000818181858888f19350505050158015610b81573d6000803e3d6000fd5b50505050565b610b9233838361147e565b5050565b610ba03383611015565b610bbc5760405162461bcd60e51b815260040161056790611e3c565b610b818484848461154c565b6009546001600160a01b03163314610c2e5760405162461bcd60e51b815260206004820152602360248201527f4f6e6c79206f776e65722063616e20757064617465206c697374696e6720707260448201526269636560e81b6064820152608401610567565b600a55565b6060610c3e82610f45565b60008281526006602052604081208054610c5790611e02565b80601f0160208091040260200160405190810160405280929190818152602001828054610c8390611e02565b8015610cd05780601f10610ca557610100808354040283529160200191610cd0565b820191906000526020600020905b815481529060010190602001808311610cb357829003601f168201915b505050505090506000610cee60408051602081019091526000815290565b90508051600003610d00575092915050565b815115610d32578082604051602001610d1a929190611ee1565b60405160208183030381529060405292505050919050565b610d3b8461157f565b949350505050565b610d4b611a1c565b6000610d5660075490565b6000908152600b6020908152604091829020825160a0810184528154815260018201546001600160a01b03908116938201939093526002820154909216928201929092526003820154606082015260049091015460ff161515608082015292915050565b60606000610dc760075490565b905060008167ffffffffffffffff811115610de457610de4611c24565b604051908082528060200260200182016040528015610e1d57816020015b610e0a611a1c565b815260200190600190039081610e025790505b5090506000805b83811015610edc576000610e39826001611e9f565b6000818152600b6020908152604091829020825160a0810184528154815260018201546001600160a01b039081169382019390935260028201549092169282019290925260038201546060820152600482015460ff161515608082015286519293509091869086908110610eaf57610eaf611ecb565b6020908102919091010152610ec5600185611e9f565b935050508080610ed490611eb2565b915050610e24565b50909392505050565b6000610ef060075490565b905090565b60006001600160e01b031982166380ac58cd60e01b1480610f2657506001600160e01b03198216635b5e139f60e01b145b8061043457506301ffc9a760e01b6001600160e01b0319831614610434565b6000818152600260205260409020546001600160a01b0316610fa45760405162461bcd60e51b8152602060048201526018602482015277115490cdcc8c4e881a5b9d985b1a59081d1bdad95b88125160421b6044820152606401610567565b50565b600081815260046020526040902080546001600160a01b0319166001600160a01b0384169081179091558190610fdc82610882565b6001600160a01b03167f8c5be1e5ebec7d5bd14f71427d1e84f3dd0314c0f7b2291e5b200ac8c7c3b92560405160405180910390a45050565b60008061102183610882565b9050806001600160a01b0316846001600160a01b0316148061106857506001600160a01b0380821660009081526005602090815260408083209388168352929052205460ff165b80610d3b5750836001600160a01b0316611081846104cc565b6001600160a01b031614949350505050565b826001600160a01b03166110a682610882565b6001600160a01b0316146110cc5760405162461bcd60e51b815260040161056790611f10565b6001600160a01b03821661112e5760405162461bcd60e51b8152602060048201526024808201527f4552433732313a207472616e7366657220746f20746865207a65726f206164646044820152637265737360e01b6064820152608401610567565b826001600160a01b031661114182610882565b6001600160a01b0316146111675760405162461bcd60e51b815260040161056790611f10565b600081815260046020908152604080832080546001600160a01b03199081169091556001600160a01b0387811680865260038552838620805460001901905590871680865283862080546001019055868652600290945282852080549092168417909155905184937fddf252ad1be2c89b69c2b068fc378daa952ba7f163c4a11628f55a4df523b3ef91a4505050565b610b928282604051806020016040528060008152506115f2565b6000828152600260205260409020546001600160a01b031661128c5760405162461bcd60e51b815260206004820152602e60248201527f45524337323155524953746f726167653a2055524920736574206f66206e6f6e60448201526d32bc34b9ba32b73a103a37b5b2b760911b6064820152608401610567565b60008281526006602052604090206112a48282611fa3565b506040518281527ff8e1a15aba9398e019f0b49df1a4fde98ee17ae345cb5f6b5e2c27f5033e8ce79060200160405180910390a15050565b600a5434146113395760405162461bcd60e51b815260206004820152602360248201527f486f706566756c6c792073656e64696e672074686520636f727265637420707260448201526269636560e81b6064820152608401610567565b600081116113945760405162461bcd60e51b815260206004820152602260248201527f4d616b652073757265207468652070726963652069736e2774206e6567617469604482015261766560f01b6064820152608401610567565b6040805160a081018252838152306020808301828152338486018181526060860188815260016080880181815260008c8152600b9097529890952096518755925193860180546001600160a01b039586166001600160a01b03199182161790915590516002870180549190951691161790925551600384015592516004909201805492151560ff1990931692909217909155611431919084611093565b604080513081523360208201529081018290526001606082015282907f9339409317fd01fabff48b703019016f49159bacc801ae872d2ca637d226e4c09060800160405180910390a25050565b816001600160a01b0316836001600160a01b0316036114df5760405162461bcd60e51b815260206004820152601960248201527f4552433732313a20617070726f766520746f2063616c6c6572000000000000006044820152606401610567565b6001600160a01b03838116600081815260056020908152604080832094871680845294825291829020805460ff191686151590811790915591519182527f17307eab39ab6107e8899845ad3d59bd9653f200f220920489ca2b5937696c31910160405180910390a3505050565b611557848484611093565b61156384848484611625565b610b815760405162461bcd60e51b815260040161056790612063565b606061158a82610f45565b60006115a160408051602081019091526000815290565b905060008151116115c157604051806020016040528060008152506109a3565b806115cb84611726565b6040516020016115dc929190611ee1565b6040516020818303038152906040529392505050565b6115fc83836117b9565b6116096000848484611625565b6106085760405162461bcd60e51b815260040161056790612063565b60006001600160a01b0384163b1561171b57604051630a85bd0160e11b81526001600160a01b0385169063150b7a02906116699033908990889088906004016120b5565b6020604051808303816000875af19250505080156116a4575060408051601f3d908101601f191682019092526116a1918101906120f2565b60015b611701573d8080156116d2576040519150601f19603f3d011682016040523d82523d6000602084013e6116d7565b606091505b5080516000036116f95760405162461bcd60e51b815260040161056790612063565b805181602001fd5b6001600160e01b031916630a85bd0160e11b149050610d3b565b506001949350505050565b6060600061173383611944565b600101905060008167ffffffffffffffff81111561175357611753611c24565b6040519080825280601f01601f19166020018201604052801561177d576020820181803683370190505b5090508181016020015b600019016f181899199a1a9b1b9c1cb0b131b232b360811b600a86061a8153600a850494508461178757509392505050565b6001600160a01b03821661180f5760405162461bcd60e51b815260206004820181905260248201527f4552433732313a206d696e7420746f20746865207a65726f20616464726573736044820152606401610567565b6000818152600260205260409020546001600160a01b0316156118745760405162461bcd60e51b815260206004820152601c60248201527f4552433732313a20746f6b656e20616c7265616479206d696e746564000000006044820152606401610567565b6000818152600260205260409020546001600160a01b0316156118d95760405162461bcd60e51b815260206004820152601c60248201527f4552433732313a20746f6b656e20616c7265616479206d696e746564000000006044820152606401610567565b6001600160a01b038216600081815260036020908152604080832080546001019055848352600290915280822080546001600160a01b0319168417905551839291907fddf252ad1be2c89b69c2b068fc378daa952ba7f163c4a11628f55a4df523b3ef908290a45050565b60008072184f03e93ff9f4daa797ed6e38ed64bf6a1f0160401b83106119835772184f03e93ff9f4daa797ed6e38ed64bf6a1f0160401b830492506040015b6d04ee2d6d415b85acef810000000083106119af576d04ee2d6d415b85acef8100000000830492506020015b662386f26fc1000083106119cd57662386f26fc10000830492506010015b6305f5e10083106119e5576305f5e100830492506008015b61271083106119f957612710830492506004015b60648310611a0b576064830492506002015b600a83106104345760010192915050565b6040805160a08101825260008082526020820181905291810182905260608101829052608081019190915290565b6001600160e01b031981168114610fa457600080fd5b600060208284031215611a7257600080fd5b81356109a381611a4a565b60005b83811015611a98578181015183820152602001611a80565b50506000910152565b60008151808452611ab9816020860160208601611a7d565b601f01601f19169290920160200192915050565b6020815260006109a36020830184611aa1565b600060208284031215611af257600080fd5b5035919050565b80356001600160a01b0381168114611b1057600080fd5b919050565b60008060408385031215611b2857600080fd5b611b3183611af9565b946020939093013593505050565b600080600060608486031215611b5457600080fd5b611b5d84611af9565b9250611b6b60208501611af9565b9150604084013590509250925092565b805182526020808201516001600160a01b039081169184019190915260408083015190911690830152606080820151908301526080908101511515910152565b6020808252825182820181905260009190848201906040850190845b81811015611bfd57611bea838551611b7b565b9284019260a09290920191600101611bd7565b50909695505050505050565b600060208284031215611c1b57600080fd5b6109a382611af9565b634e487b7160e01b600052604160045260246000fd5b600067ffffffffffffffff80841115611c5557611c55611c24565b604051601f8501601f19908116603f01168101908282118183101715611c7d57611c7d611c24565b81604052809350858152868686011115611c9657600080fd5b858560208301376000602087830101525050509392505050565b60008060408385031215611cc357600080fd5b823567ffffffffffffffff811115611cda57600080fd5b8301601f81018513611ceb57600080fd5b611cfa85823560208401611c3a565b95602094909401359450505050565b60a081016104348284611b7b565b60008060408385031215611d2a57600080fd5b611d3383611af9565b915060208301358015158114611d4857600080fd5b809150509250929050565b60008060008060808587031215611d6957600080fd5b611d7285611af9565b9350611d8060208601611af9565b925060408501359150606085013567ffffffffffffffff811115611da357600080fd5b8501601f81018713611db457600080fd5b611dc387823560208401611c3a565b91505092959194509250565b60008060408385031215611de257600080fd5b611deb83611af9565b9150611df960208401611af9565b90509250929050565b600181811c90821680611e1657607f821691505b602082108103611e3657634e487b7160e01b600052602260045260246000fd5b50919050565b6020808252602d908201527f4552433732313a2063616c6c6572206973206e6f7420746f6b656e206f776e6560408201526c1c881bdc88185c1c1c9bdd9959609a1b606082015260800190565b634e487b7160e01b600052601160045260246000fd5b8082018082111561043457610434611e89565b600060018201611ec457611ec4611e89565b5060010190565b634e487b7160e01b600052603260045260246000fd5b60008351611ef3818460208801611a7d565b835190830190611f07818360208801611a7d565b01949350505050565b60208082526025908201527f4552433732313a207472616e736665722066726f6d20696e636f72726563742060408201526437bbb732b960d91b606082015260800190565b601f82111561060857600081815260208120601f850160051c81016020861015611f7c5750805b601f850160051c820191505b81811015611f9b57828155600101611f88565b505050505050565b815167ffffffffffffffff811115611fbd57611fbd611c24565b611fd181611fcb8454611e02565b84611f55565b602080601f8311600181146120065760008415611fee5750858301515b600019600386901b1c1916600185901b178555611f9b565b600085815260208120601f198616915b8281101561203557888601518255948401946001909101908401612016565b50858210156120535787850151600019600388901b60f8161c191681555b5050505050600190811b01905550565b60208082526032908201527f4552433732313a207472616e7366657220746f206e6f6e20455243373231526560408201527131b2b4bb32b91034b6b83632b6b2b73a32b960711b606082015260800190565b6001600160a01b03858116825284166020820152604081018390526080606082018190526000906120e890830184611aa1565b9695505050505050565b60006020828403121561210457600080fd5b81516109a381611a4a56fea2646970667358221220e2d30355f24c2aaab5b996f5c43d29aa68041faaf9512ee52c4b9dc5d31c618864736f6c63430008130033",
  "linkReferences": {},
  "deployedLinkReferences": {}
}